:020000040000fa
:080000000002040000000000f2
:020000040000fa
:100400006f8520000e7f22000e0188000000000092
:1004100000012000200288000c00070060f7200087
:100420000100200011000700000020000000e00093
:10043000020032000000020000000000360f02003f
:10044000000000000040da000000fe004440a90067
:10045000000020000000e000030032000000200047
:10046000a00188004440a800000006009101880017
:10047000800078000000eb0015003700e2804000ab
:1004800032a0b4009101ba00e280400032a0b40072
:100490009102ba00e280400032a0b4000002eb00fa
:1004a000472bde00f507b200602ce10004003a00a3
:1004b0000059eb008301e900fdff3e000400370016
:1004c0006128e100010032000082eb000400070017
:1004d0001101ba000200e000e8ff3a000000060047
:1004e0003159ba008301e9000c0032002159ba00e9
:1004f0008301e900080032000400e00003003a0034
:10050000e280400032a0b400f5ff370011d9ba00f4
:100510008301e900faff3a008100e800e180400031
:1005200032a0b400000006000040da000000fe0027
:100530006022b800060220000000d0008180d200b6
:100540000482d2008582d2000000a0000202520084
:1005500083825a00030031000202420083824a0073
:100560000000a1000603e900f3ff3a0000000600c6
:100570006011b800f2003700889fbe008a9fbe005d
:100580008c1f78001d0107002401330003866c00d6
:100590006450e100240032006420e10027003200b2
:1005a0006150e100220032006120e10021003200b0
:1005b0008b854200eb07b1000134b800003ab80067
:1005c0000804420089844a00013ab8000030b800ab
:1005d0008880400009014a00040033000000400008
:1005e00081804800020149008b05e900c909dd004e
:1005f000830170000100320013002000c814de00e7
:100600004814dd004709de001200b200c808de0011
:10061000088470001101070001f0a1000cf0a70090
:1006200001f0a000060137006120e100080132005e
:100630000801be000200be00f7ff37006150e10074
:10064000fcff3a0002013700889fbe008a9fbe006f
:100650008c1f7800e9000700f000330003866c006f
:100660006450e1002e0032006420e10033003200cb
:100670006150e1002f0032006120e10031003200c2
:1006800085855500eb07b000090020000804200014
:10069000050037000804440089844c000a0031003a
:1006a0000603430087834b000001530081815b00f8
:1006b000f8ff33000203be000800a0000804440055
:1006c00089844c00f6ff3900c639dd0083017300d0
:1006d00001003200130020008904d1000884d300f7
:1006e0000998a300050032000800a7000300a0003d
:1006f0008904d1000884d3008b05e8008904d10067
:100700000884d3000001eb000281d200d30007006f
:1007100001f0a1000cf0a70001f0a000c800370014
:100720006420e100ca0032000801be000200be00e1
:10073000f7ff37006120e100c50032006000b8001b
:10074000f3ff37000000200001f82700f0ff37001a
:1007500003f0a200889fbe008a9fbe008c1f780015
:10076000a6000700ad0033006450e1004f003200e6
:100770006420e1005200320003826c0007003b005d
:100780000905d0000306d000820f54000c065d005e
:100790000200390002003200890178000306780067
:1007a0008582550004003d000003fd008103fd002b
:1007b0008502ea008b854200840f720002003b0034
:1007c00060001000e08018006011b8000005eb0028
:1007d0007a28e1000a00390006007800c75ddd00d4
:1007e000f707b200878075002d0037008281710005
:1007f0000a017800610560008180d1000080d3008b
:100800008502e900f9ff3b000604400087844800a8
:1008100002003b0060041400e0841c000988a3006f
:10082000070032008a8171008281710061016400d9
:100830008904d1000884d3008b05e8001700370035
:100840000978a30013003a000b00e0001300340005
:100850008b05e9000804440089844c000a447400b4
:100860000978a3000d003a000b00e00007003400f7
:100870008b05e9000804440089844c0001003a001b
:100880000b0020000978a300f7ff32000001eb0005
:1008900002003700828171000a0178006f000700b2
:1008a0000cf0a70001f0a000650037006420e10013
:1008b00002003a00838f6c00650033000801be001f
:1008c0000200be005e0037000001be008900070084
:1008d0000470a70003f0a10003f8a30013003a007e
:1008e0006509b10010003200090035006928e100f7
:1008f0000200350001002800000005000000400053
:10090000818048008502e900fcff3a0000000600f3
:10091000f88f4200050035008100d1000080d3002f
:100920008502e800fcff3a00000006008000eb00b2
:10093000000005004f89de00820178008200370048
:10094000889fbe008a9fbe00008270000402710072
:1009500004827100260032000004be000200be00c6
:100960006011b8006b092000950220000182cf00c1
:100970000a0039000541b1000082cf0007003900ac
:100980000541b1000982cf00040039000541b100e2
:100990000882cf00010039000541b1000542520034
:1009a000120032000a003b00828171006101640084
:1009b0008100d1000080d3008984d3000884d30053
:1009c0008b05e8000442e800f7ff3a000700370013
:1009d0000804440089844c000000480081804800dd
:1009e0008b05e9000442e900f9ff3a001b0007000b
:1009f0004f05be004f04be00000006000004be000c
:100a00003c0007000003be000405be000200be005b
:100a100038000700844f7500000006000200be0089
:100a20006450e100050036006420e1000200360059
:100a30000968a30001003a000800be000160a000a0
:100a40004f0678004f05be004f04be0000000600b0
:100a5000f0ff2f00f1ff2700f9ff37008100200091
:100a6000618055000b003d000b00200061fe2f004f
:100a70000100e1001d003400828171006101640009
:100a80008904d1000884d3000000e800faff3a008e
:100a9000710020006100640003007000020060002b
:100aa0000900320061044400e0844c000988a5007c
:100ab000050032008b05e8006808e10002003a00fa
:100ac0008904d1000884d300f20f20000258e1000d
:100ad00005003d00c75ddd00f907b20089807500a3
:100ae00008007800000006000bf827008b00780053
:100af00000000500c70ade00f107b200f50fb200e2
:100b000008003200e1cf4200020032000170a00074
:100b100024000500810f7000010032000408050068
:100b200044000500810f700002003a001400050027
:100b30008502e9000000400081c04800fcff3b0046
:100b40000170a00024000500881f780003047800cd
:100b50000300e00007003d0060001000e080180086
:100b600060011900e081190002003b0001f02d0036
:100b70000300370072ff070008f0a70001f0a00093
:080b80004f047800000006009c
:020000040000fa
:100008009402000094020000940200009402000090
:100018009402000094020000940200009402000080
:100028009402000094020000940200007e0a00007e
:100038009402000094020000940200009402000060
:10004800940200009402000094020000440700009b
:10005800be08000094020000940200009402000010
:100068009402000094020000940200009402000030
:100078009402000094020000940200009402000020
:100088009402000094020000940200009402000010
:100098009402000094020000940200009402000000
:1000a80094020000940200009402000094020000f0
:1000b80094020000940200009402000094020000e0
:1000c80094020000940200009402000094020000d0
:1000d80094020000940200009402000094020000c0
:1000e80094020000940200009402000094020000b0
:1000f80094020000940200009402000094020000a0
:10010800940200009402000094020000940200008f
:10011800940200009402000094020000940200007f
:10012800940200009402000094020000940200006f
:10013800940200009402000094020000940200005f
:10014800940200009402000094020000940200004f
:10015800940200009402000094020000940200003f
:10016800940200009402000094020000940200002f
:10017800940200009402000094020000940200001f
:10018800940200009402000094020000940200000f
:1001980094020000940200009402000094020000ff
:1001a80094020000940200009402000094020000ef
:1001b80094020000940200009402000094020000df
:1001c80094020000940200009402000094020000cf
:1001d80094020000940200009402000094020000bf
:1001e80094020000940200009402000094020000af
:0801f8009402000094020000d3
:020000040000fa
:10020800940200009402000094020000940200008e
:10021800940200009402000094020000940200007e
:100228009402000094020000940200007e0a00007c
:10023800940200009402000094020000940200005e
:100248009402000094020000940200004407000099
:10025800be0800009402000094020000940200000e
:10026800940200009402000094020000940200002e
:10027800940200009402000094020000940200001e
:10028800940200009402000094020000940200000e
:1002980094020000940200009402000094020000fe
:1002a80094020000940200009402000094020000ee
:1002b80094020000940200009402000094020000de
:1002c80094020000940200009402000094020000ce
:1002d80094020000940200009402000094020000be
:1002e80094020000940200009402000094020000ae
:1002f800940200009402000094020000940200009e
:10030800940200009402000094020000940200008d
:10031800940200009402000094020000940200007d
:10032800940200009402000094020000940200006d
:10033800940200009402000094020000940200005d
:10034800940200009402000094020000940200004d
:10035800940200009402000094020000940200003d
:10036800940200009402000094020000940200002d
:10037800940200009402000094020000940200001d
:10038800940200009402000094020000940200000d
:1003980094020000940200009402000094020000fd
:1003a80094020000940200009402000094020000ed
:1003b80094020000940200009402000094020000dd
:1003c80094020000940200009402000094020000cd
:1003d80094020000940200009402000094020000bd
:1003e80094020000940200009402000094020000ad
:0803f8009402000094020000d1
:020000040000fa
:100b88000600fa00200798000002eb00040f780026
:100b98000a0037000002eb00140798000300370032
:100ba8001e0290000402e800140798001e0290003c
:100bb800e10f4200faff3a001e0fe8002e029000f3
:100bc8009e027800848f5200f2ff39000080fa00fc
:100bd800000006000400fa00100798000002eb006d
:100be800040f7800010037001e0fe8001e02900075
:100bf8009e027800848f5200fbff39000080fa00c3
:100c0800000006000000fa002174200062042000a1
:100c180073052000824878008348780042c7a900fd
:100c28000080fa00000006000000fa00217420008d
:100c38006204200073052000824878008348780009
:100c480042c7a8000080fa00000006000000fa0071
:100c5800ecff07001536800004fe2f0004826200b6
:100c68002401b3001436880065368000f40f2e0086
:100c78008482620004302100048272006436880095
:100c88002535800004fe2f00048262006400b30052
:100c98002435880035368000f40f2e0084826200e7
:100ca800043020000482720034368800deff07001a
:100cb8000080fa00000006000000fa00f4ff290096
:100cc800641988004516800034ff2c0004826200f5
:100cd800441688004516800004002400048272002f
:100ce80044168800041680000410a000041688002a
:100cf80005168000e4ff2f000482620004168800b5
:100d0800451680000480280004827200441688007a
:100d180025168000e4ff2f00048262002416880054
:100d28006516800034ff2c00048262006416880077
:100d38000080fa00000006000000fa006516800036
:100d480074ff2f0004826200641688000002eb0022
:100d5800340c880065168000f4ff2e0004826200bf
:100d6800641688000002eb00040c88000080fa007a
:100d7800000006000400fa00008fbe001e01be003d
:100d88000060240051002000e7fd07000002be00bb
:100d9800040278000402e900441188000002eb0014
:100da8001411880004002800041188002342a800b8
:100db8009580a8009560a800540580000400a00054
:100dc8000410a0000420a1005405880044058000f8
:100dd80004c0a00004d0a00004e0a10044058800dd
:100de8000080fa00000006000600fa00004f7800b4
:100df80011479800224798003347980044479800c5
:100e080004ceb3000440780043e8b7001e407800e1
:100e180044e8b7001e40900045e8b7002e40900017
:100e280046e8b7003e40900047e8b7004e409000c3
:100e380048e8b7001e4290009e426a002e42900089
:100e480084c26a003e42900084c26a004e4290000a
:100e580004c26a000440780049e8b7000042eb0089
:100e6800044078004de8b70034842000144278002c
:100e78000482fb00241188000080fa0000000600ac
:100e8800801f7800849fbe003400f8000000200016
:100e9800a00188000200fa0034118000044f780095
:100ea800c484200014427800e04f520054003a00f5
:100eb80004ceb3009e42780084cf520012003a005c
:100ec8000042eb00044078004ae8b700a484200000
:100ed800144278008482fb00c4832000048242000c
:100ee8001e4a78000042eb00044078004be8b70047
:100ef800a4842000144278000442e80004407800ea
:100f08004ae8b7003e003700a48420001442780065
:100f18008482fb00c4832000048242001e4a7800b9
:100f2800a484200014427800e54f520011003e00ce
:100f3800a4842000144278008482fb00c48320002b
:100f48000482420094427800b4842000144278005d
:100f580004c26a00044078004be8b700a48420006b
:100f6800144278000442e800044078004ae8b700d8
:100f780023003700a4842000144278008482fb00f8
:100f8800c4832000048242001e4a78002584200081
:100f980095427800b48420001442780084cf52002f
:100fa80017003a00d48320001442780004407800e7
:100fb8004ee8b700e483200014427800044078002b
:100fc8004fe8b700f483200014427800044078000a
:100fd80050e8b700048420001442780004407800e8
:100fe80051e8b700148420001442780004407800c7
:100ff80052e8b70014c0b300044078004ce8b700ca
:101008008560a9000080fa003400f9004f02be0094
:101018004f007800004006000000fa00c484200059
:1010280014427800e14f520050003a000042eb00b1
:10103800044078004ce8b70004852000144278008a
:101048000482fb00e30f520025003200e30f520038
:1010580005003c00e10f52000c003200e20f520084
:101068001500320041003700e5072000850f5200c7
:1010780031003200f5072000850f5200320032009f
:10108800f00f5200240032003800370095408000ed
:1010980034062000848f520004003e0094408000f3
:1010a8000402e8009440880030003700440620001d
:1010b800944088002d00370094408000f80f5200bb
:1010c80004003600944080000402e900944088003f
:1010d8002600370084012000944088002300370050
:1010e8002485200014427800f74f52001c00360077
:1010f800258520009542780044c6b30084cf52006d
:1011080019003e0024852000144278000482fb0068
:101118009440880015003700d441800004427800cc
:101128008041eb0002c9b3008040eb0010c0b3005f
:101138002dff07000d00370024c0b30004407800dd
:1011480001e8b700090037000042eb0004407800ce
:1011580001e8b700f8fe07000000000003003700b0
:101168000000000001003700000000000080fa00c5
:1011780000000600801f7800849fbe003400f8003d
:1011880000002000a00188000000fa00d48420009c
:1011980014427800e54f52000d003e00d484200030
:1011a800144278000442e800044078004de8b70093
:1011b800d4842000144278008482fb003484200008
:1011c80004824200144278000482fb002411880043
:1011d8008580a9000080fa003400f9004f02be00a3
:1011e8004f007800004006000000fa005516800005
:1011f8000480200004826200e00f520017003a00c9
:10120800a44280000402e900a44288005516800028
:101218000480200004826200e00f52000f003a00b0
:10122800a4428000e00f52000c003a009540800074
:1012380034062000848f520004003e009440800051
:101248000402e800944088000200370044062000a9
:101258009440880004712200a4428800541680003b
:10126800e00f520014003500a44280000402e90097
:10127800a442880054168000e00f52000e0035008a
:10128800a4428000e00f52000b003a009440800016
:10129800f80f520004003600944080000402e90070
:1012a80094408800020037008401200094408800a0
:1012b80004712200a442880055168000040024000e
:1012c80004826200e00f52000400320024168000fd
:1012d8000400a00024168800090037005516800075
:1012e8000400240004826200e00f520004003a0067
:1012f80025168000e4ff2f0004826200241688006f
:101308000080fa00000006000200fa00000f7800d2
:101318000002eb008408880011e1a900840880001d
:101328000440a1000450a100840888001021a900ed
:101338000002eb00340888001e0278000500200037
:101348000400be0088fc07000002be0002002c005a
:1013580083b224000400be0085fc07000002be0022
:1013680002402200439f24000400be00b4fc070092
:101378000002be000200200003f023000400be00ab
:10138800f2fc07000002be000200200003f8230060
:101398000400be00ecfc07000002be000400be0012
:1013a80047fd07000002be000402780064088800b8
:1013b80011e1a8000080fa00000006000000fa0011
:1013c8000002eb00240c88000002eb00140c8800db
:1013d8000002eb00040c880064002000240c880044
:1013e8000002eb00540c88000002eb00440c88005b
:1013f8000002eb00340c880064002000540c8800c4
:1014080040012000c0ff07000080fa00000006002d
:101418000200fa00000f78000002eb0024088800a0
:1014280005e1a900240880000440a0000450a100a0
:10143800240888000421a9000002eb0004088800a1
:101448001e027800050020000400be0046fc0700cc
:101458000002be0002002c0083b224000400be007b
:1014680043fc07000002be0002402200439f240004
:101478000400be0072fc07000002be00020020004b
:10148800031024000400be006dfc07000002be002b
:101498000200200003f023000400be00abfc07009c
:1014a8000002be000200200003f823000400be0072
:1014b800a5fc07000002be000400be0000fd0700f6
:1014c8000002be0004027800140888002405800089
:1014d80004c0a10004d0a10004e0a00024058800f5
:1014e8008460a9009460a80005e1a8000080fa00c3
:1014f80000000600841f78003400f8000400200073
:10150800a40188000000fa00144080000402e800ea
:10151800144088008460a9000080fa003400f900b3
:101528004f027800004006000200fa005000200038
:1015380093fd07000002eb001440880034c0b3009c
:10154800044078000de8b700440620009440880065
:101558000002eb00b44188000002eb00c44188009f
:101568000002eb00d44188000042eb000440780000
:101578004ce8b70014c0b300044f780008003700e7
:101588009e4278000582fb008402420064812000ac
:10159800048242008002eb00050a78001e4fe80032
:1015a8001e427800e94f5200f5ff36000080fa002d
:1015b800000006000200fa00889fbe00004f780075
:1015c800114798001e427800e14f520028003a0067
:1015d8009e42900024c3b30084cf520024003e00f2
:1015e8006516800074ff2f0004826200641688006c
:1015f8000002eb00340c880065168000040021000e
:1016080004827200641688006408800005002000c7
:101618000400be00d4fb07000004be001e42900078
:101628000482fb00cfa2de000400be00bffc07005e
:101638000002be000401be000800be00ccfb07008b
:101648000002be00a2702d0033c223000400be00b9
:10165800c7fb07000002be000400be0098fc07009c
:101668000002be0004027800040c88002b0037003a
:101678001e427800e24f520027003a009e42900036
:1016880024c3b30084cf520023003e0065168000b7
:10169800f4ff2e0004826200641688000002eb004a
:1016a800040c8800641680000430a00064168800ca
:1016b80064088000050020000400be00aafb0700a3
:1016c8000004be001e4290000482fb00cfa2de0090
:1016d8000400be0095fc07000002be000401be0025
:1016e8000800be00a2fb07000002be00a2702d0089
:1016f80033c223000400be009dfb07000002be00a9
:101708000400be006efc07000002be000402780060
:10171800340c88000100370087fd07004f04be0025
:101728000080fa00000006000000fa00641680003d
:101738000430a000641688000002eb00340c880016
:101748006516800004002100048272006416880077
:101758000002eb00040c88000080fa00000006007c
:101768000000fa001416800062026200e00f5200c6
:101778000c00320014c0b300044078000ce8b70035
:101788006516800074ff2d000482620064168800cc
:1017980065168000b4ff2e0004826200641688007b
:1017a800030037000042eb00044078000ce8b70063
:1017b8000080fa00000006000200fa000042eb0078
:1017c800044f78000c00370025168000e4ff2f0036
:1017d800048262002416880050002000e8fc0700fc
:1017e800241680000400a000241688005000200061
:1017f800e3fc07001e4fe8001e427800fd4f520030
:10180800f1ff36000080fa00000006000200fa002e
:10181800000f7800c44180001e024200c4418800c5
:10182800c5418000b4418000040342006481200067
:10183800040243001402780004825200c441880064
:10184800b441800084024200648120000482420086
:101858001e0a7800b44180000402e800b441880000
:10186800b4418000ef0f5200020036000002eb0086
:10187800b4418800c44180004422de00d44188007d
:10188800d541800034022000848f520007003600c2
:10189800a4c0b300044078000ee8b700a4c0b300a9
:1018a800044078000fe8b70068003700d441800092
:1018b800fb0f520021003600d441800005002000b3
:1018c8000400be0028fb07000002be00d2cc2c009a
:1018d800c3ec23000400be0025fb07000002be0085
:1018e8000400be00f6fb07000002be0004427800b8
:1018f800044078000ee8b700d441800005002000bd
:101908000400be0018fb07000002be00d2cc2c0069
:10191800c3e423000400be0015fb07000002be005c
:101928000400be00e6fb07000002be000442780087
:10193800044078000fe8b70044003700d441800025
:10194800f70f520021003600d44180000500200026
:101958000400be0004fb07000002be006266260009
:1019680063ee23000400be0001fb07000002be0076
:101978000400be00d2fb07000002be00044278004b
:10198800044078000ee8b700d4418000050020002c
:101998000400be00f4fa07000002be00d2cc2c00fe
:1019a800c3e423000400be00f1fa07000002be00f1
:1019b8000400be00c2fb07000002be00044278001b
:1019c800044078000fe8b70020003700d4418000b9
:1019d800050020000400be00e3fa07000002be0074
:1019e800f2512800b3ee23000400be00e0fa07001d
:1019f8000002be000400be00b1fb07000002be00ea
:101a080004427800044078000ee8b700d441800012
:101a1800050020000400be00d3fa07000002be0043
:101a2800d2cc2c00c3e423000400be00d0fa070087
:101a38000002be000400be00a1fb07000002be00b9
:101a480004427800044078000fe8b700d5418000d0
:101a5800e4802000144278000482fb008482520053
:101a6800f4802000144278000482fb0004825200b3
:101a78002440880024408000344088000080fa0018
:101a8800000006000200fa000002eb001440880083
:101a98000042eb00144798000042eb000440780035
:101aa8000de8b7000042eb00044f78003d00370016
:101ab8005516800004002400048262004440880017
:101ac80044408000e00f520006003a00d480200015
:101ad800144278008440780020c0b300b5fe0700a7
:101ae8000b0037004540800004002400848f52001a
:101af80006003a00d4802000144278008440780020
:101b080010c0b300abfe0700010037000000000062
:101b1800551680000400240084826200444080003e
:101b2800848f520004003a0015408000f418200009
:101b3800848f5200f6ff360015408000f41820000c
:101b4800848f52000e003600d480200014427800a2
:101b5800ee4f520006003e00d48020001442780068
:101b68000442e800044078000de8b7000a00370096
:101b7800f4c0b300044078000de8b7000600370051
:101b8800144080000400780020ff07001e429000e7
:101b98000442e800144798000002eb001440880053
:101ba8001e4fe80034c6b3009e42780084cf52002e
:101bb800bfff36001e429000e94f520006003e006b
:101bc8005dfc07000042eb000440780001e8b70024
:101bd800f9fe0700faff370014c0b300044078008c
:101be80001e8b70055168000040024000482620052
:101bf800444088000002eb00144088004440800004
:101c0800e00f520006003a00d48020001442780009
:101c18008440780020c0b30066fe07000900370042
:101c28004540800004002400848f520005003a00db
:101c3800d4802000144278008440780010c0b3009b
:101c48005cfe07000080fa00000006000000fa00b1
:101c580055168000040024008482620044408000fd
:101c6800848f52004f003200144080005440880096
:101c78000002eb001440880055408000341f20000b
:101c8800848f52000a003e0054408000e80f520042
:101c9800070036005440800004007800dbfe07008f
:101ca8005516800004002400048262004440880025
:101cb800d44180008402e80094408000848f520060
:101cc80019003100a540800014c0b30006052000ab
:101cd800868f520001003e000042eb008502e800ba
:101ce800a5408800e04f52000f003200d480200049
:101cf80014427800e14f520006003600d4802000dc
:101d0800144278000442e900044078000de8b70066
:101d1800030037000042eb00044078000de8b700ec
:101d28000002eb00a4408800d44180008402e9004e
:101d380094408000848f52001a003600a54080002d
:101d480014c0b30006052000868f520001003e0033
:101d58000042eb008502e800a5408800e04f5200f1
:101d680010003200d58020009542780004c3b300eb
:101d780084cf520006003e00d48020001442780030
:101d88000442e800044078000de8b700030037007b
:101d980024c3b300044078000de8b7000002eb004c
:101da800a44088001540800024408000848f5200a1
:101db80009003900f4802000144278008482fb0076
:101dc800244080008482420014408000848f5200a6
:101dd80001003600d8fb0700f48020001442780088
:101de8008482fb00244080008482420014408000ea
:101df800848f520012003e0044408000e00f5200e1
:101e080006003a00d480200014427800844078000c
:101e180010c0b300e7fd0700090037004540800007
:101e280004002400848f520005003a00d48020006a
:101e3800144278008440780020c0b300ddfd07001c
:101e480015408000341f2000848f520003003600a4
:101e5800b9fb070058fe0700fdff37000080fa00b5
:101e6800000006000000fa0093fb070077fb07005c
:101e7800adfd07009001200065fd07004ffd07003c
:101e8800adfb0700a00020003dfb070000202c0050
:101e980011002000b7fb07005ffc0700148020003a
:101ea80014427800e14f520003003a00cefc0700cc
:101eb80066ff0700f8ff37001480200014427800fe
:101ec800e24f520005003a000042eb00044078005f
:101ed80001e8b700ebfe0700efff370096fb0700ad
:041ee800edff3700d3
:020000040000fa
:101eec00000800005400000000000000540800002e
:101efc00020000000200000010270000000000009b
:00000001FF
